:020000040800F2
:1000000098050020D5000008992300082D1F00083E
:1000100000000000000000000000000000000000E0
:100020000000000000000000000000000D25000896
:100030000000000000000000E12300080F25000878
:100040000501000805010008050100080501000878
:100050000501000805010008050100080501000868
:100060000000000005010008050100080501000866
:100070000501000805010008000000002526000811
:100080000000000000000000000000000000000070
:100090000501000800000000000000000501000844
:1000A0000000000005010008000000000000000042
:1000B0008D2B000805010008000000000000000072
:1000C0000348854600F0F8FA0048004781300008F0
:1000D000980500200C4880F308880C480168090E38
:1000E0000B4A914205D10B480B4901600B480C4962
:1000F00001600C4880470C480047FEE7FEE7FEE73A
:10010000FEE7FEE7FEE7000098050020040000007F
:100110001F000000341002400100000000000140F8
:1001200000000000D1250008C100000830B50B46D2
:10013000014600202022012409E00D46D5409D42C1
:1001400005D31D469540491B254695404019154647
:10015000521E002DF1DC30BDF0B51FB40646002064
:1001600082B005464024019100901BE0019922468F
:100170000F46304600F0EEF9049A059B801A99412B
:1001800010D310461946224600F0D4F9361A8F4192
:100190000197224601200021009F00F0CBF938187A
:1001A0004D4100902046641E0028DFDC019B009832
:1001B0002946324607B0F0BDF8B50024254600298F
:1001C00004DA0E46012400214042B141002B04DA3A
:1001D0001E46002352420125B341FFF7BDFF8C4666
:1001E00017461E46AC4203D0002540428D41AC4626
:1001F000002C02D0002657429E4161463A463346C3
:1002000001B0F0BDF0B51FB486B0002000900190A1
:1002100002900698069980B204900798090C02048F
:100220000014114307900027089D099806913E4647
:100230003C4603900398A9B20204000C0390049872
:100240002D0C154348430021224600F073F9C719CD
:10025000714110340E46402CECDB3846029A00F017
:1002600069F9009A019B8018009059410298019108
:10027000103002904028CCDB00980BB0F0BD024655
:1002800070B54A40D30FDB0740002DD04A002AD07A
:10029000010E140E000212020919400A520A8418B3
:1002A000E50104465443000A120A2E045043A419DF
:1002B0004219200CC543AA18120C0125AD03521C8B
:1002C000521912047F39240400D0521C104301D467
:1002D0004000491EC2B20C06C0092018401C40084C
:1002E000802A02D003E0002070BD400840000029B1
:1002F00000DA0020184370BD70B502464A40D50FA1
:1003000040004A00ED0740085208002814D0002A97
:1003100012D0C40DD30D41020120C0055202490A7A
:10032000520AE41A091812187D34914201D3641C50
:1003300000E04900002C01DA002070BD002391424A
:1003400001D3891A0343400849000028F7D1002946
:100350000AD0914202D10121C90705E0914201D2A0
:10036000012101E00121C943E005C018401900F056
:1003700002F970BD420005D04200120E52428A427C
:1003800001DB00207047C90508187047F0B51FB49D
:1003900088B00B990998002448400999C00F49007A
:1003A00049080991C0070B990090490049080B9131
:1003B00009990898A64608431CD00B990A98084347
:1003C00018D0099801244000420D4800410D0998B9
:1003D00024050003000B204309900B980003000B39
:1003E00020430B9050181C494018002201901446DD
:1003F000104605E0002001460DB0F0BD032801DAEB
:10040000034600E003239C46C11A0AAE0AE05F00DF
:1004100008ADED5B4F00F75B7D430027AA187C41D8
:10042000491C5B1E6145F2DD410004AB5A522104B8
:10043000120C0A43240C401C0828DFDB01980290B0
:100440000099704601910090059B049A07990698BF
:1004500000F0DFF8D0E700000DFCFFFFC217C10F6E
:10046000504010B54018CA079623002100F08BF8C1
:1004700010BD10B500229623114600F084F810BD7F
:100480000EB505490291002100910A460B460191E3
:1004900000F0BFF803B000BD33040000C20F4100FC
:1004A00040020123400ADB05D207090EC0187F294C
:1004B00001DA00207047962903DC9623591AC840B8
:1004C00001E096398840002AF4D04042704741004C
:1004D00040020122400AD205090E80187F2901DA64
:1004E00000207047962903DC9622511AC8407047B5
:1004F00096398840704700004A0009030123090B20
:100500001B051943094B10B5520D9A4201DA002020
:1005100010BD064B34339A4203DC9A1A00F01AF8E5
:1005200010BD03495118884010BD0000FF030000B2
:10053000CDFBFFFF10B5202A04DB0146203A914095
:10054000002010BD914020239C1A0346E34019432C
:10055000904010BD10B5202A04DB0846203AD04058
:10056000002110BD0B46D340D0402024A21A914058
:100570000843194610BD002904DA401C490001D186
:1005800040084000704770B40024050C05D11024C9
:10059000000402D1002921D01124050E01D100024E
:1005A0000834050F01D10001241D850F01D1800001
:1005B000A41C002801DB4000641C002908D0202571
:1005C0002E1B0D46F540A14000D0012129430843D0
:1005D00001061B1B000ADB1D02D5002070BC704702
:1005E000DB05181880180029F8DA401C4900F5D1FD
:1005F00070BC40084000704710B5002B08DA00249A
:10060000401C614192185B411A4301D140084000EF
:1006100010BDF0B51FB482B005460C0003D00846EB
:1006200002F01CFB02E002F019FB203002460090B1
:1006300021462846FFF77EFF049B059A04460F4695
:1006400018431143084314D0184610431BD0009898
:1006500040210A1A18460599FFF77CFF05460E4609
:10066000009A05990498FFF765FF084305D001201B
:1006700004E02046394607B0F0BD0020C11705430D
:100680000E432C43374300990E986305401A7905B1
:10069000E40A00220C43FD0A0A3002D5002001467C
:1006A000E9E70105101969410C9C0D9D001969418C
:1006B000FFF7A2FFDFE70000064C0125064E05E02C
:1006C000E36807CC2B430C3C98471034B442F7D373
:1006D000FFF7FAFC283E0008483E000806490020C3
:1006E0000872C87188714871044A01465054491C07
:1006F000C9B21329FAD97047000000206B0100200D
:1007000010B5084900224A6107494B684C1523433C
:100710004B604B68082423434B60C009C001026052
:1007200010BD0000800100200020024010B5214AC9
:1007300000219069C305204804D54169022319436B
:100740004161911593699B0505D5436901242343B4
:1007500043616302194393695B0505D54369082426
:1007600023434361E301194393691B0505D543699D
:100770000424234343616302194393699B0405D511
:1007800043691024234343616302194393699B0324
:1007900004D5446920231C43446119439369DB0356
:1007A00005D54369402423434361A002014391617D
:1007B00010BD0000002002408001002070B50546F9
:1007C00000F0BAF90646184C0AE0681C08D0002D63
:1007D00004D000F0B1F9801BA84201D9032070BDFC
:1007E000A069C007F1D1A069800701D50220A061EE
:1007F000A069C00511D4A06980050ED4A069400588
:100800000BD4A069000508D4A069800405D4A069B0
:10081000800302D4A069C00303D5FFF787FF01203E
:1008200070BD002070BD00000020024070B50024A3
:10083000014620314A79022A03D00421C1630124F0
:100840002EE0026813680E25AB431360026813683C
:100850005B085B001360134B02689A4201D10122CE
:1008600013E0104B14339A4201D110220DE00D4BCE
:1008700028339A4201D1921507E00A4B3C339A4241
:1008800001D1921401E001221204064B083B5A6088
:1008900001224A7100220A71816B002900D0884729
:1008A000204670BD0800024031B500F045F904460D
:1008B00000F042F90099001B8842F9D338BD0000CE
:1008C000F8B51A4E0546307C0F46012807D00120A6
:1008D00030741748FFF772FF010002D021E00220B8
:1008E000F8BD0020C04338606C6814E02046FFF774
:1008F00007FF0F48FFF762FF01460E4842680823D2
:100900009A434260426843159A434260002901D0ED
:100910003C6006E08034A8686A68C0018018A04284
:10092000E4D8002030740846F8BD000080010020A3
:1009300050C30000002002400348416802221143D6
:10094000416000207047000000200240F8B50C4CC8
:100950001646207C0F46012808D001202074094843
:10096000FFF72CFF0025002802D006E00220F8BD8A
:1009700065613E600348FFF721FF2574F8BD000064
:100980008001002050C300000948416889070CD548
:100990004168C90703D00749C1600749C1600749D9
:1009A0000161074901610020704701207047000084
:1009B00000200240EFCDAB8905040302BFAE9D8C41
:1009C00016151413F8B50023012498E027469F401C
:1009D0003A4070D04D68022D01D0122D14D1DD089F
:1009E000AD002D1800952D6A5E07AC46F50E0F265A
:1009F000AE46AE406546B543AC460E697546AE4060
:100A000065462E43009D2E624D68012D05D0022DB6
:100A100003D0112D01D0122D16D185680326AC46C6
:100A20005D00AE46AE406546B543AC46CE68754601
:100A3000AE4065462E43866046680D79BE43ED069E
:100A4000ED0F9D403543456006685F000325BD40BE
:100A5000AE46AE430D79B446AE07B60FBE4065460E
:100A60002E430660C6687546AE438D68BD4035436B
:100A7000C5604D68ED0041D5244D6E6B26436E6315
:100A80009E08234DB6007519AC46AD689E07360F1B
:100A90000F27B740BD4305273F07B84201D10027C4
:100AA0000BE01C4FB84201D1012706E01A4FB842B3
:100AB00002D1022701E021E00627B7402F43654617
:100AC000AF60164D2E684F689643FF0300D516435E
:100AD0002E606E684F689643BF0300D516436E6064
:100AE000AE684F689643FF0200D51643AE60EE68CD
:100AF0004F689643BF0200D51643EE605B1C0A6840
:100B00001546DD4000D061E7F8BD0000001002404E
:100B100000000140000400500008005000040140A3
:100B20000069084000D001207047002A01D081618F
:100B300070478162704700000148006870470000FC
:100B40002C00002070B5024640325378202B1CD177
:100B50001378012B19D001231370242454700468D6
:100B600025689D432560046825681E03B5432560FC
:100B7000046825680D432560006801681943016019
:100B8000202050700020107070BD022070BD70B524
:100B9000024640325378202B1BD11378012B18D0FA
:100BA000012414702423537003681D68A5431D603D
:100BB00005682B680F263602B343090219432960E2
:100BC00000680168214301602020507000201070EF
:100BD00070BD022070BD000070B5040006D025462F
:100BE000403568780026002802D005E0012070BD5D
:100BF0002E70204600F0A2F9242068702068016859
:100C00004908490001600F2160680906884321688E
:100C1000086121688A680120C00382438A60E16814
:100C20000129A16808D02122920211432268916013
:100C3000E168022902D005E00143F7E701212268BB
:100C4000C902516021684A680F4B1A434A60216803
:100C5000CA688243CA60616920690843A1690902C0
:100C600008432168C860216AE06908432168086078
:100C700020680168012211430160666420206870C9
:100C80002663AE70002070BD00800002FFB50546EF
:100C900004464035687883B0202872D10C9800282B
:100CA00070D00D9800286DD02878012869D00120D7
:100CB0002870FFF741FF0746012200901923D10356
:100CC000204601F0FFF9002875D1222068704020ED
:100CD000A870002666640C9860620D986085666353
:100CE0000E980090019704A90EC9204601F06AF9F8
:100CF000002804D0606C2E7004285FD05BE0618D0A
:100D00003748FF2905D9FF22228501231B060090C1
:100D100006E0618D21850090208D0123C2B25B0623
:100D20002046049901F0BAF90097002204212046D8
:100D30000E9B01F0C7F900283DD12068416A606A26
:100D4000421C62620170208D401E81B22185608D3F
:100D5000401E6085002921D1608D00281ED000979B
:100D60000022802120460E9B01F0ACF9002822D100
:100D7000608DFF2807D9FF22228501231B060096DC
:100D800008E02AE01AE0608D20850096208D01237E
:100D9000C2B25B062046049901F080F9608D0028FC
:100DA000C2D13A4620460E9901F0B0F9002807D08A
:100DB000606C042802D0032007B0F0BD0120FBE7DF
:100DC00021682020C86121684A68064B1A404A60A1
:100DD0006870AE702E700020EEE70220ECE7000095
:100DE0000024008000E800FEFFB5054604464035BB
:100DF000687883B0202876D10C98002874D00D989C
:100E0000002871D0287801286DD001202870FFF7C4
:100E100093FE0746012200901923D103204601F0DA
:100E200051F9002853D1212068704020A870002675
:100E300066640C9860620D98608566630E980090F9
:100E4000019704A90EC9204601F0F2F8002804D049
:100E5000606C2E7004286AD039E0608DFF2805D9B7
:100E6000FF22228501231B06009606E0608D208567
:100E70000096208D0123C2B25B062046049901F042
:100E80000DF93A4620460E9901F067F9002803D083
:100E9000606C04284BD01AE0606A411C61622168D2
:100EA00000788862608D401E6085208D401E0004A1
:100EB000000C208524D1608D002821D000970022CD
:100EC000802120460E9B01F0FDF8002802D003206F
:100ED00007B0F0BD608DFF2807D9FF2222850123CE
:100EE0001B06009608E024E021E0608D2085009636
:100EF000208D0123C2B25B062046049901F0CEF892
:100F0000608D0028BDD13A4620460E9901F0FEF8CA
:100F10000028BDD120682021C16120684268064BAD
:100F20001A4042606970AE702E700020D0E7012038
:100F3000CEE70220CCE7000000E800FE00B5006824
:100F40000D4985B0884214D1032040020090122040
:100F5000019001210320039002910491052069462C
:100F60000007FFF72FFD0548816B01225205114351
:100F7000816305B000BD0000005400400010024035
:100F800002480168491C0160704700002C000020E5
:100F900010B506480168402211430160002000F0AE
:100FA00007F800F019F8002010BD000000200240F2
:100FB00010B5044607487D21C9000068FFF7B6F860
:100FC00000F06EFC00222146501E00F021F80020A7
:100FD00010BD000030000020002210B51146501F47
:100FE00000F016F800221146901E00F011F80022C1
:100FF0001146501E00F00CF810BD0000C106C90ECD
:1010000001208840014908607047000000E100E0CD
:1010100010B501F0C3F910BDF8B53A4903460124F3
:101020000020E403364D374A4031022B31D0042BE7
:1010300049D0082B56D0202B0BD10B690969032509
:101040002D0429406700A600B94203D199052CE080
:101050002046F8BDB14203D19907FAD52A48F8BD18
:10106000A942FCD111688903F9D511680320000554
:10107000014001200005091A09D0091A05D0814252
:1010800001D12248F8BD2248F8BD2248F8BD2248C7
:10109000F8BDCB680C2633400AD0082B0BD0042BAC
:1010A0000ED00C2BF4D1096989050029D0DBF8BDDD
:1010B00000F096F9F8BD11684907FBD52846F8BD40
:1010C00000F0AEF9F8BDCB680326B6023340EFD08E
:1010D0000127FF02BB42EED07A109342F0D0B34218
:1010E000E1D0F8BDC96803231B031940E0D00124F7
:1010F00064036310A142DED09942E1D0F8BD000044
:101100000024F400001002408890000020A1070095
:1011100000093D0040420F0080841E00F8B50446DF
:1011200000784F4D800672D54D4E0027403EB06B83
:10113000C00004D4B06BA9050843B0630127494837
:101140000168C90511D40168821511430160FFF7D8
:10115000F3FC009005E0FFF7EFFC0099401A6428CB
:1011600037D840480068C005F5D532680321090525
:1011700060680A400140914208D08103890F032929
:1011800004D13168890301D50120F8BD2A69032102
:1011900009040A4022D0084090421FD020788006DF
:1011A0001CD528692A6988430121C9040A432A6198
:1011B0002A698A432A612861C0050FD5FFF7BCFC64
:1011C000009008E0FFF7B8FC0099411A26488142D8
:1011D00001D90320F8BD28698005F3D5616888032B
:1011E000800F032805D132680005824301400A437D
:1011F00032602869032261681204114008432861A3
:10120000002F04D0B16B012000078143B163207827
:10121000800705D5E8680C218843A1680843E86089
:101220002078400706D5E868032189028843E168F1
:101230000843E8602078000706D5E8680321090321
:10124000884321690843E8602078000606D5E868ED
:1012500003218904884361690843E8600020F8BDE0
:10126000401002400070004088130000F8B50546A9
:1012700053480E460068C007C00FB0420AD250481B
:10128000016849084900314301600068C007C00F88
:10129000B0426FD128784B4C800705D5E068F0212B
:1012A0008843A9680843E0602878C00752D068687E
:1012B000022817D0032818D02168012818D08905E2
:1012C000002957DAE168890889000143E160FFF7E6
:1012D00033FC69680746022912D003291CD0012972
:1012E00026D033E021688903EAE721688901E7E72E
:1012F0004907E5E7FFF720FCC11B3348814223D8AB
:10130000E0680007800F0228F4D123E0FFF714FC07
:10131000C11B2D48814217D8E0680007800F0328C1
:10132000F4D117E0FFF708FCC11B274881420BD816
:10133000E0680007800F0128F4D10BE0FFF7FCFB09
:10134000C11B2148814201D90320F8BDE068000794
:10135000800FF3D11A480168C907C90FB1420BD9F0
:10136000016849084900314301600068C007C00FA7
:10137000B04201D00120F8BD2878400706D5E068CA
:10138000072109028843E9680843E06028780007DC
:1013900007D5E0680721C90288432969C9000843C5
:1013A000E06000F03DF8E168084A0906090F515C69
:1013B000C840074908600020FFF7FAFD0020F8BD8B
:1013C000002002400010024088130000043E000884
:1013D0003000002001480068704700003000002005
:1013E000044805490068C968044A4905490F515C29
:1013F000C840704730000020001002401D3E000829
:10140000044805490068C968044A8904490F515CC9
:10141000C840704730000020001002401D3E000808
:1014200010B5184AD1680C20084004280BD00828B1
:1014300010D00C2810D050680004410F0120C003C8
:10144000491C884010BD1068C00601D50E4810BD6B
:101450000E4810BD0E4810BD88020E4B000F185CE0
:101460000902D368890F491CDB0301D5084A05E04E
:101470001268D20601D5044A00E0044A5043FEF740
:1014800055FE10BD0010024000093D000024F4008C
:1014900000127A00143E0008F8B504460078F24DB8
:1014A000C0074AD0E8680007800F022807D0E86824
:1014B0000007800F032809D1E868C00306D5286813
:1014C00080033AD56068002873D036E00120626856
:1014D0000004824203D129680143296011E00523F9
:1014E00001211B0489049A422A6802D10A432A6016
:1014F000F1E782432A602A68024000922868884304
:101500002860606800280CD0FFF716FB064604E050
:10151000FFF712FB801B64287ED828688003F7D56C
:101520000BE0FFF709FB064604E0FFF705FB801B15
:101530006428F1D828688003F7D42078800741D543
:10154000E8681F270007800F3F02012807D0E868DE
:101550000007800F032809D1E868C00306D4286873
:10156000400717D5E068012823D113E0E068002880
:1015700017D029680922914301432960FFF7DCFA5B
:10158000064604E0FFF7D8FA801B0228C4D8286872
:101590004007F7D568682169B843090208436860C5
:1015A00010E02868400840002860FFF7C5FA0646AA
:1015B00005E090E0FFF7C0FA801B0228ACD828684D
:1015C0004007F7D42078C00676D5E868A74E000714
:1015D000800F0BD0A06900285DD02868FF21013161
:1015E00008432860FFF7A8FA074644E0286880050A
:1015F00002D5A06900286ED0206A6968314088420F
:1016000012D900F0EFFE0028AED16868216AB0431D
:1016100008436860686800E0BBE00002217F000AC0
:101620000906084368600FE06968B14301436960D7
:101630006868217F0002000A090608436860206A82
:1016400000F0D0FE00288FD1206A410B0120C0039A
:10165000491C8840E96809060A0F8549895CC84029
:10166000844908600020FFF7A3FC25E0FFF764FA37
:10167000C01B02288AD828688005F7D56868216AC7
:10168000B043084368606868217F0002000A0906C9
:101690000843686010E02968FF2001308143296019
:1016A000FFF74AFA064604E0FFF746FA801B0228D5
:1016B0006FD828688005F7D420786F4E000723D5AF
:1016C00060690028306910D0012108433061FFF7BC
:1016D00033FA074605E0C5E0FFF72EFAC01B0228E3
:1016E00057D830698007F7D50EE0400840003061D8
:1016F000FFF722FA074604E0FFF71EFAC01B022894
:1017000047D830698007F7D42078400762D5A86BA6
:101710000027C00005D4A86B012109070843A8636E
:10172000012756480168C90511D401688215114383
:101730000160FFF701FA009005E0FFF7FDF900995D
:10174000401A642825D84D480068C005F5D5FF200B
:10175000A2680130824203D131690143316111E055
:1017600001218902002A07D005231B029A4203D1D6
:1017700032690A433261EFE732698243326130698C
:1017800088433061A06800280FD0FFF7D5F900909A
:1017900007E060E0FFF7D0F90099411A384881422C
:1017A00059D830698005F5D50DE0FFF7C5F90090EF
:1017B00006E0FFF7C1F90099411A314881424AD841
:1017C00030698005F5D4002F04D0A96B01200007F3
:1017D0008143A963606A002842D0E9680907890F3C
:1017E00003293FD0012636060228286805D0B043D9
:1017F0002860FFF7A1F904462FE0B0432860FFF707
:101800009BF9074604E0FFF797F9C01B022822D88E
:1018100028688001F7D4E16AA06AEA680843216B6E
:10182000FD231B049A4311430843E86028683043B2
:101830002860FFF781F9044604E0FFF77DF9001BFB
:10184000022808D828688001F7D509E0FFF774F965
:10185000001B022801D90320F8BD28688001F5D4B7
:101860000020F8BD0120F8BD0010024000E000009B
:10187000043E00083000002040100240007000408C
:1018800088130000042204490428086902D0904308
:10189000086170471043FBE700E000E0704700007C
:1018A000094910B5401E884201D9012010BD074CDE
:1018B00060610321081F00F071FD0020A061072076
:1018C0002061002010BD0000FFFFFF0000E000E0ED
:1018D00010B5FFF7E3FF10BD70B502462032137D4F
:1018E000012B1BD00123137502245475046865680D
:1018F0007026B5436560046865680E6835436560A9
:101900000468A5688026B543A560006884684968B6
:101910000C43846053750020107570BD022070BDAB
:1019200070B5040005D025462035687D002802D01A
:1019300006E0012070BD00202875204600F00AF85E
:1019400002206875211D206800F07CFE012068756A
:10195000002070BD006801218907884204D1034836
:10196000816B012211438163704700000010024027
:101970000222014620314A750268136801200343A0
:1019800013604875002070470268D36801210B433B
:10199000D360006802680A43026000207047F8B50F
:1019A000054604462035287D012817D001272F75CC
:1019B00002206875226890687726FF23B0431B02D7
:1019C000984390600868502837D00EDC202857D004
:1019D00006DC00284ED0102840D14EE00220F8BD91
:1019E000302850D0402839D13CE060282DD07028D4
:1019F00017D001221203801A0ED090422ED1CB684C
:101A00004A688968206800F03DFE206881680122EC
:101A100092031143816021E020688168C908C900F0
:101A2000F8E7CB684A688968206800F02BFE2168D7
:101A30008868B0433043886010E0CA68496820680D
:101A400000F033FE5021206806E0CA68496820682B
:101A500000F03CFE6021206800F01FFE6F75002042
:101A60002875F8BDCA684968206800F01EFE40214C
:101A70002068F1E700212068EEE710212068EBE7FD
:101A800020212068E8E730212068E5E7704770B53D
:101A90000446006801690025C9438907002915DB50
:101AA000C168C943890711D4E91E0161012020756D
:101AB000206880698007204602D0FFF7E7FF04E036
:101AC00000F078F8204600F076F825752068016966
:101AD000C943490717D4C168C943490713D404212E
:101AE000C943016102202075206880698005800F4C
:101AF000204602D0FFF7CAFF04E000F05BF8204662
:101B000000F059F8257520680169C943090716D402
:101B1000C168C943090712D40821C94301610420DF
:101B200020752068C0698007204602D0FFF7AEFF0D
:101B300004E000F03FF8204600F03DF825752068ED
:101B40000169C943C90617D4C168C943C90613D47A
:101B50001021C9430161082020752068C0698005F3
:101B6000800F204602D0FFF791FF04E000F022F83A
:101B7000204600F020F8257520680169C943C9078F
:101B800008D1C168C943C90704D1891E0161204633
:101B900000F012F820680169C943490609D4C168F8
:101BA000C943490605D44021C9430161204600F0DC
:101BB00004F870BD704770477047704770477047B2
:101BC000F8B502680446D06911680607360F07D1D8
:101BD000830605D58B0603D5204600F038FEF8BDF8
:101BE00095682023002E65D0EE07F60FFF272137DA
:101BF0000F4037435ED0C70706D0CF0504D5012775
:101C00001762E26E3A43E266820708D5EA0706D019
:101C1000276802223A62E26E04273A43E2664207EC
:101C200008D5EA0706D0256804222A62E26E02255A
:101C30002A43E266020709D50A461A40324305D014
:101C4000236808221A62E36E1343E366E26E002AF9
:101C5000C5D0800604D5880602D5204600F0F7FDE1
:101C6000E06E000703D42068806840061CD520463B
:101C700000F0DEFD20688168490611D582684021A8
:101C80008A438260606E00280AD01D498163606EBD
:101C9000FEF7CCFD0028A2D0606E816B8847F8BDAE
:101CA0002046FFF78CFFF8BD2046FFF788FF002095
:101CB000E066F8BD2646C7026036002F0ADA6D02DC
:101CC00008D50120000510627372B3722046FFF739
:101CD00075FFF8BD050605D50D0603D5204600F0B5
:101CE000F1FEF8BD4006FCD54806FAD5204614683A
:101CF00040218C431460737200F017F9F8BD0000A6
:101D00001D28000870B5040005D025466035687AA6
:101D1000002802D006E0012070BD00202872204675
:101D200000F026F8242068722068016849084900FC
:101D30000160606A002802D0204600F0DAFC2046EC
:101D400000F0C4FD0128E7D0206841680922D202D2
:101D500091434160206881682A2291438160206814
:101D60000168012211430160204600F027FD70BD8B
:101D7000F0B50068104985B088421BD10F48816BCF
:101D8000012252041143816301200224002503260D
:101D9000694671C105273F07694638460495FEF735
:101DA00011FE04200090049001AA70C269463846D2
:101DB000FEF708FE05B0F0BD0044004000100240F0
:101DC000F0B5034660339C7A202C44D100290BD017
:101DD000002A09D0012584682D03AC4206D106698A
:101DE000002E03D1CE0701D00120F0BD1E7A012EB6
:101DF00031D001261E724165014640310A834A8373
:101E0000FF27AC4204D10269002A12D1134A0EE026
:101E10007F22002C08D001252D07AC420AD104698D
:101E2000002C04D03F2202E00469002C01D08A83F8
:101E300000E08F830021C16622229A721972016824
:101E40008A6832438A6000680168FF2221321143A8
:101E500001600020F0BD0220F0BD0000FF01000085
:101E60007047FFB5064604466036707A83B00D466B
:101E7000202858D1002D0CD00598002809D0012029
:101E8000A1680003814207D12069002804D1E80736
:101E900002D0012007B0F0BD307A012843D00120E4
:101EA00030720020E06621207072FEF745FE01903E
:101EB00027464037059838820598788218E0788A56
:101EC000401E788206980090002280212046019BC7
:101ED00000F02BFE002818D10120A16800038142E8
:101EE00002D12069002812D02168287888626D1CF0
:101EF000788A0028E3D106980090002240212046ED
:101F0000019B00F012FE002808D00320C2E72888B9
:101F10002168C005C00D8862AD1CE9E72020707201
:101F200000203072B6E70220B4E77047FEE7016890
:101F30008A69D243920701D400228A6200688169CB
:101F4000C943C90703D081690122114381617047E8
:101F5000F7B5044600680E468069C043C0062CD41D
:101F600020272546403520688069C04380060FD56C
:101F7000701CF8D0002E05D0FEF7DEFD0299401A45
:101F8000B042F0D96F700020A87028700320FEBD09
:101F900021681020C8612068C7612046FFF7C7FF8D
:101FA00020684168064A11404160042060646F70F7
:101FB0000020A87028700120FEBD0020FEBD00009A
:101FC00000E800FEF8B50446164618481D46DAB289
:101FD0000090079F0023204600F060F83A46204614
:101FE000069900F0BAF8002803D0606C04281BD0D2
:101FF00018E02846F5B2012809D02168300A886225
:102000003A462046069900F0A8F80028EDD120684D
:1020100085620097002240212046069B00F052F87E
:10202000002800D00320F8BD0120F8BD002000806A
:10203000F8B50446164618481D46DAB2C3020090A9
:10204000079F204600F02AF83A462046069900F0FD
:1020500084F8002803D0606C04281BD018E02846C0
:10206000F5B2012809D02168300A88623A46204634
:10207000069900F072F80028EDD12068856200977B
:10208000002280212046069B00F01CF8002800D08A
:102090000320F8BD0120F8BD00200080F0B50668DF
:1020A000059C7568064F600D384385438805800D93
:1020B000110408431843204305437560F0BD000038
:1020C000FF63FF03F8B51C4617460E46054611E0B0
:1020D000601C0FD0002C05D0FEF72EFD0699401A8B
:1020E000A04207D92020403568700020A8702870D1
:1020F0000320F8BD286881693046884304D0002059
:10210000B842E5D00020F8BD0120F9E770B51646C9
:102110000D4604461AE0324629462046FFF718FFCE
:10212000002801D0012070BD002D04D0FEF704FD71
:10213000801BA8420AD9616C2020014361644034AD
:1021400060700020A0702070032070BD206880693E
:10215000C0438006DFD4002070BD70B516460D4622
:1021600004461CE0324629462046FFF7F1FE0028CF
:1021700001D0012070BD681C11D0002D04D0FEF7E5
:10218000DBFC801BA8420AD9616C202001436164FA
:10219000403460700020A0702070032070BD206863
:1021A0008069C0438007DDD4002070BDF0B51A48B7
:1021B00087B0C16A01252943C162C16A29400591DE
:1021C000C16A02263143C162C06A144F3040059093
:1021D000002231463846FEF7A8FC002402946946E6
:1021E0003846009601950394FEF7ECFB0096052611
:1021F000360701946946029503943046FEF7E2FBE8
:102200001820009002946946019503943046FEF729
:10221000D9FB07B0F0BD00000010024000040050E0
:1022200010B5124810490160E121C9004160002148
:1022300081600161416181610122C161C26001620D
:10224000FEF7CAFC002800D0FEE700210748FEF791
:1022500079FC002800D0FEE700210448FEF797FC37
:10226000002800D0FEE710BD0054004068000020A8
:1022700010B50121124886B0890701607D21002434
:1022800009028460416064210461C160FFF748FB7A
:10229000002800D0FEE701200003009069460848AE
:1022A000FFF77DFB002800D0FEE7049404A9044852
:1022B0000594FFF711FB002800D0FEE706B010BD23
:1022C000B4000020F8B5052002210007FEF728FC25
:1022D00001250324AD022E496402EE002B4B0C278E
:1022E000002200280B6009D02A4800688A604860F4
:1022F000284810300368002B28D028E02548001D0E
:1023000000688A604860234814300368002B00D1BD
:102310000A610368012B00D10C610068022800D11A
:102320000D611C4824300368012B00D1CA6000688D
:10233000022800D1CE608A61CA610A624F611448E6
:102340004A62FFF7DFFC00281ED0FEE70A6103683F
:10235000012B00D10C610068022800D10D610D48ED
:1023600020300368012B00D1CA600068022800D128
:10237000CE608A61CA610A624F6105484A62FFF70E
:10238000C1FC002800D0FEE7F8BD0000004400407A
:10239000EC000020B03F0008704700008307FF22D8
:1023A000DB0E9A408907090E994000280BDA0007D6
:1023B000000F0838830808489B001818C369934326
:1023C0000B43C3617047830804489B001B181868BF
:1023D000904308431860704700ED00E000E400E01F
:1023E0007047000070B517490023CA681206120F23
:1023F00018D18A6B154CD500134A02D512682240B9
:1024000009E08E6B01252D072E438E6312688E6BBB
:102410002240AE438E63A24204D103218903884245
:1024200000D101230A4801684908490019430160A5
:102430000068C007C00F984201D0012070BD002085
:1024400070BD000000100240007000400018000045
:1024500000200240FEB57D24240102E02046FEF764
:1024600023FA254B25481A46083A111D00F024FD91
:102470000028F3D0204C183C20690190FEF727F883
:102480001F4D87B200902946A069FDF7F8FEFEF7C0
:102490001EF886B229466069FDF7F1FEFDF7FEFFE2
:1024A00005B2009880B2FDF7EBFF0022154BFDF757
:1024B0006DFFFEF721F80199134C490080B2090E17
:1024C00003D1E17801221143E17029126171A571F4
:1024D000310AE1712672010A6172A072380AE07253
:1024E00027730D21084800F017FD0349183988812A
:1024F0006073000AA073FEBD1800002034000020A5
:10250000000020410000E83F5C010020704710B54A
:10251000FEF736FDFFF7DCF910BD000010B52948C5
:1025200098B001680322D2029143C2148918016055
:102530002548426B01210A434263826B03041A431C
:102540008263224802680B041A430260022003914E
:10255000102100900491099040040B900001002488
:102560000C900A946846FEF797FF002800D0FEE71B
:102570000F200D9003200E900F94109401211194C0
:102580000DA8FEF773FE002800D0FEE70A20129087
:102590001494169412A8FEF7C1FD002800D0FEE79F
:1025A000FEF718FF7D21C900FDF7C0FDFFF778F9A0
:1025B0000420FFF767F900221146501EFEF728FDA0
:1025C00018B010BD0070004000100240000401402F
:1025D00010480168821511430160C1680E4A11401C
:1025E000C16001680D4A11400160816849084900D5
:1025F000816001680122920491430160C168FD225B
:1026000012049143C160002101610549C003886043
:1026100070470000001002400C40FF88F6FFF6FEF5
:1026200000ED00E010B50548FFF731FA04484178A5
:10263000491C41708178491C817010BDB400002094
:102640000000002030B5026801239B070C4C984223
:1026500001D0A04203D17025AA434D682A43984275
:1026600001D0A04204D103231B029A43CB681A4332
:1026700002608A68C262096881620121416130BDDD
:102680000008014030B58468FF252D021B0213436A
:10269000AC430B432343836030BD826870239A436D
:1026A0000A4307210A438260704730B5036A046A0F
:1026B0006408640004628469F025AC43120122437B
:1026C0000A24A3430B438261036230BD30B5036A21
:1026D0001024A34303628469036A0F252D031203A8
:1026E000AC432243A024A343090119438261016240
:1026F00030BD10B5818CC90707D001684A68012335
:102700005B049A43836A1A434A60818C890707D520
:1027100001684A6801231B049A43C36A1A434A604A
:10272000818C490707D501684A6801239B049A43B5
:10273000036B1A434A60818C090707D501684A6810
:102740000123DB039A43436B1A434A60818CC90619
:1027500007D50268916801231B039943836B1943D2
:102760009160818C890607D501688A6801235B0323
:102770009A43C36B1A438A60818C490612D5036859
:102780005A6801210905046C8A4322435A60026C8D
:102790008A4207D10268516803235B059943436C61
:1027A00019435160818C090607D501684A680123E5
:1027B000DB04806C9A4302434A6010BDF8B50026E2
:1027C0000446C666FEF7B8F9054620680068124F51
:1027D000000709D501212B46002249052046009714
:1027E00000F0A3F900280DD12068006840070BD540
:1027F00001212B46002289052046009700F095F91B
:10280000002801D00320F8BD202060346072A0723F
:1028100026720020F8BD0000FFFFFF0110B5806A9E
:102820000022014640314A834A82FFF7C8F910BDB1
:1028300001680A68FF2321339A430A6001688A68A5
:10284000520852008A60202160308172704770B552
:102850000246403201466031938B8D7A0C46016806
:10286000222D05D08869082210438861022070BD9E
:10287000496A01268568360389B2B54202D10569E5
:10288000002D0BD01940436D5D1C45651970518BAF
:10289000491E0904090C518307D015E0456D194004
:1028A0002980416D891C4165F1E701680A68FF23B1
:1028B00021339A430A6001688A68520852008A608C
:1028C0002021A172FFF7CCFA002070BDFEB50446AE
:1028D000016880682269E369104362691027002655
:1028E0001A4310430A6835466D4B1A4002430A608A
:1028F00021684868032212039043E268104348604D
:10290000684A2168A069914201D0226A10438A680E
:102910000B231B029A4302438A60634A206863497F
:1029200090420AD1C8680C2108402BD004282DD031
:10293000082829D00C2810D10EE05A4A90420CD118
:10294000C9680320800201401CD01015091A1DD04F
:10295000091A19D0814200D108270220FEF75CFB3A
:102960000190504B514922684039D81300929A4245
:1029700035D1002F0CD0022F0DD0042F12D0082FEC
:102980001CD113E00027E8E70227E6E70427E4E785
:10299000FEF726FD08E00868C00601D5444805E0BA
:1029A000444803E0FEF73CFD002873D06268510004
:1029B0005118814202D81103814201D2012569E0F8
:1029C000010E06025008002330185941FDF7C4FBE0
:1029D00003210902384A411A914259D9EEE7E269C6
:1029E00082422DD13B0000F050F90906080B241952
:1029F0002424241F2400019812E0FEF701FD0FE0BB
:102A000008686168C00602D548082C4A01E02C4AD3
:102A100048088018FDF78AFB86B20BE0FEF700FD40
:102A2000616840004A08F4E761680122480812041E
:102A3000EFE70125310909013007400F084327E07E
:102A40003B0000F022F909070A0D061D06060629BB
:102A50000600B3E7FEF7C4FC14E0FEF7D1FC11E07A
:102A600008686168C00602D54A08114801E01148AB
:102A70004A081018FDF75AFB81B20098C16009E0BE
:102A8000FEF7CEFC61684A088018FDF74FFB80B264
:102A90002168C8602846FEBD61684A08E9E7000071
:102AA000F369FFEF0048004000440040401002403E
:102AB00000093D000024F400FFFC0F0000127A0022
:102AC0000048E8016921095C212901D002207047F2
:102AD00002464032518A002912D0012381681B032B
:102AE000994202D10169002915D0C16C4B1CC36405
:102AF000006809788162508A401E50820020704729
:102B000001680A6880239A430A60006801684022CD
:102B100011430160F2E7C16C03680988C905C90D5A
:102B20009962C16C891CC164E5E7FFB581B01746A5
:102B30000E4604460A9D1DE0681C1BD0002D05D0E2
:102B4000FDF7FAFF0499401AA84213D920680168DA
:102B5000FF22A13291430160206881684908490041
:102B60008160202060346072A072002020720320F7
:102B700005B0F0BD2068C1693046884304D000200C
:102B8000B842D9D00020F3E70120F9E710B5024898
:102B9000FFF716F810BD0000EC000020F0B585B07E
:102BA00000202C4E01252C4C03900196029500909C
:102BB0002570FDF7E9FE207003A96846FDF780FE49
:102BC0002070FDF7B9FE2570FDF7DEFE20700028AD
:102BD000FAD1257035464B261E4FF6011037DC2200
:102BE00029460220FDF7B2FE207032463946022007
:102BF000FDF7ACFE17492070002220310220FDF7BE
:102C0000A5FE14492070012230310220FDF79EFEFE
:102C100010492070DC22091D0220FDF797FE0D49A6
:102C20002070324614310220FDF790FE09492070D1
:102C3000002224310220FDF789FE0649207001227E
:102C400034310220FDF782FE20700028C7D105B084
:102C5000F0BD0000A03F0008000000202021020C71
:102C600001D010211046020A01D01046083902098D
:102C700001D01046091F820801D01046891E420863
:102C800001D0881E7047081A704730B47446641E1D
:102C90002578641CAB4200D21D46635D5B00E318DF
:102CA00030BC184702E008C8121F08C1002AFAD138
:102CB00070477047002001E001C1121F002AFBD1BC
:102CC0007047F8B50546808C0C46762801D07728E9
:102CD00059D12A4601233232D021284600F006FE7F
:102CE000002850D12E462036B07C582801D06028CC
:102CF00049D1B622E021284600F06CFE002842D1DE
:102D000001236A46F321284600F0F0FD0028F7D1A0
:102D100068460078C007F3D1284600F085FD0028FA
:102D200032D0B07C602804D1284600F0F3FD0028A2
:102D30002AD060796178400189000843C2B2F52148
:102D4000284600F047FE00281DD12078012801D137
:102D500000202070E078A1784001890008432178A4
:102D60000843C7B2B07C602806D12279F2212846F8
:102D700000F030FE002806D13A46F421284600F043
:102D800029FE002801D00020F8BD0120F8BD032253
:102D900002700021417005218170C1700171427182
:102DA00070470000FFB5064604462036B07C83B06D
:102DB0001D46602805D0002D01D000201860002598
:102DC00003E0002D01D0082300E006236A46F72126
:102DD000204600F08BFD002802D0002007B0F0BD97
:102DE0006A4610782388010350785F000001014390
:102DF000907800090143D078127900031201104342
:102E00006A46527912091043C2100011C01AD21B2F
:102E100002270423E75F4043E35E00137A435843ED
:102E2000D21280131718B80038188030049A001294
:102E300010603A46204600F083F80599002D08609E
:102E400036D06846C088E28B40BA80031205821AE9
:102E50004B2120208902205E791A4843101A012252
:102E6000920380180222B256237F4A434B43D91261
:102E70000123DB039212C9184A4391129A0189185F
:102E80001A22A25EC01351439A108918891348432D
:102E9000C1134943227EC91151430911401A054902
:102EA00001D5002002E0884200DD084600132860BA
:102EB000012093E700000019FEB51C0015460E46E0
:102EC00001D002AB00E0002301AA6946FFF76AFFC8
:102ED00000281DD00098FDF7C1FA0E4F3946FDF7C6
:102EE0000BFA30600198FDF7C4FA0721C943FDF7DA
:102EF00041FA3946FDF700FA2860002C07D0029805
:102F0000FDF7B7FA0921C943FDF734FA2060012023
:102F1000FEBD00000000C84230B502460648074B1F
:102F200007E01578040A45402806800D18586040CF
:102F3000521C491EF5D230BDFFFF0000043A0008C4
:102F4000F7B505464C48D11743141018594184B0C1
:102F50000C46024623460290FDF754F91022AA5E61
:102F600006460F46D317FDF74DF9009001910E204C
:102F7000285E2346C117029AFDF744F90246C30BA7
:102F8000480418435304009A01999A1848410C21A7
:102F9000695EC900121C4141009201910A22AA5E99
:102FA00030463946D317FDF72DF9070A0A060820DF
:102FB000285E17430E12C1172346029AFDF722F925
:102FC000030D0A031A430003314638185141012208
:102FD000D203001C5141EA880023FDF713F94C107D
:102FE000CE172046304345D0012105980905081A1F
:102FF000C1174208C907C30700981143019A181A5C
:1030000091411E4A0023FDF7FDF822463346FDF7A5
:10301000D3F806460B46DF04720B0C4616203A43E3
:10302000285E6713C1173B460092FDF7EBF83B465D
:10303000009AFDF7E7F8470ECA0117434A16142015
:103040000092285E3246C1172346FDF7DBF84A039B
:10305000C00C1043C9142346009AF4195341201898
:103060004B411906000A08431221695E0901401804
:1030700007B0F0BD0020FBE7000CFEFF350C0000A0
:103080001FB5FDF785FFFFF749FAFFF78FF8FFF748
:10309000C7F8FFF7EDF8002211460F20FDF7B8FF43
:1030A0000F20FDF7ABFF002211461C20FDF7B0FFFB
:1030B0001C20FDF7A3FFFE48FEF75AFCFC48FEF774
:1030C00063FCFC480068002801D1FFF767FD05207C
:1030D00002210007FDF724FDF74C00281AD0F5481F
:1030E0000068F549E0721C310870F1483830FEF78D
:1030F0003FFEFFF7E7F8EE4854380646FFF747FE75
:10310000EB48762180388184014634317D252D01BC
:10311000816205E0E748001DE2E72846FDF7C4FBB1
:10312000E34831468038FFF7CCFD0028F5D002E0B7
:103130002846FDF7B9FBE04BDD4818331A46083A3C
:10314000111D8038FFF7B8FE0028F1D020690290E9
:10315000FDF7BDF9054680B2D84E01903146A06911
:10316000FDF78DF8FDF7B3F980B200903146606944
:10317000FDF785F8FDF792F907B2A8B2FDF780F9DF
:103180000022CF4BFDF702F9FDF7B6F902990126AF
:1031900049000A0EC64980B2A831002A02D1CA7875
:1031A0003243CA70C44AC24CD27AA8342270032176
:1031B00061700A21A1700025E57039126171A77153
:1031C0000099090AE17100992172010A6172A072E5
:1031D00001980D21000AE072019820732046FFF744
:1031E0009BFEB549012288816073000AA0732046C6
:1031F000C91C7038FEF7E4FD2746303FAE4C6078BE
:103200000A2805D3AF4865704169022251404161E7
:10321000788B00281ED1E178E07A814201D12671B5
:1032200002E02079012805D1A14A607AB732115411
:10323000401C6072607A022810D0A17A884202D1C4
:103240002672257165729C4999480122C91C383043
:10325000FEF7B6FD207A01280AD037E0102903D006
:103260000820A072A671EEE70D20A0726671EAE751
:103270006079012803D0A079012802D003E00B2057
:1032800000E00620A0728A48A17AB730FFF744FE1A
:1032900081B2A181C8B2A279090A012A07D1844B5F
:1032A000B7339A79824202D1DA798A420AD06279B6
:1032B000012A09D17E4BB7339A7A824204D1D87A57
:1032C000884201D1E67104E0FDF708FAE0790128AF
:1032D0007ED1A07901287CD17548B7304078032889
:1032E0001DD08021084374491C31487008468670FF
:1032F0000321FFF711FE7049A0811C31C870010A3B
:103300006D48714B1C300171014669480522383007
:10331000FEF7A7FDFDF7E2F9A07901287ED1644808
:10332000B7308078002806D16148B730C0780028CF
:1033300026D0052824D05E48B7304178802001434C
:103340005D481C3041705C4902201C3188705A482D
:1033500003211C30FFF7E0FD5749A0811C31C870E4
:10336000010A5548584B1C3001710146504805224E
:103370003830FEF776FDFDF7B1F9A079012865D167
:103380004B48B7300079002806D14948B73040791A
:10339000052827D0022825D045488021B73040781D
:1033A000084345491C314870032088700146424853
:1033B0001C30FFF7B1FD4049A0811C31C870010AE3
:1033C0003D48414B1C30017101460522384801E05F
:1033D000BEE03EE03830FEF744FDFDF77FF9A0790E
:1033E000012833D13248B730C078002811D1304895
:1033F000B7304079052829D12D49334BA8310846EB
:103400000F227038FEF72DFDFDF768F9A07901282D
:103410001CD12748B730C178052900E016E015D146
:103420004179022912D1E17A0170042141702149C8
:10343000096881701F4910310968C1700F22811A13
:10344000214B7F38FEF70DFDFDF748F9E0790128A3
:103450007ED160790128FBD11548B73080780028EB
:1034600004D11348B730C078052831D010488021E6
:10347000B7304078084310491C31487002208870EA
:103480000D4803211C30FFF747FD0B49A0811C317B
:10349000C870010A08480C4B1C30017101460448F1
:1034A00005223830FEF7DDFCFDF718F960790DE0F4
:1034B000B4000020A03F00080000002000002041D0
:1034C0000000E83F00040050FFFF00000128BFD1CA
:1034D000CE480079002803D1CC48407902281DD07D
:1034E000CA48802140780843C94948700420887040
:1034F0000321C748FFF710FDC549A081C870010A24
:10350000C348C44B01710146C04805227F38FEF70D
:10351000A8FCFDF7E3F86079012819D1BB48807950
:1035200004281FD0B948802140780843B849487022
:10353000042088700321B648FFF7EEFCB449A0814F
:10354000C870010AB248B34B01710522014600E080
:1035500086E0AE487F38FEF784FCFDF7BFF860795F
:1035600001287DD1A948C079002801D0F7281DD3B2
:10357000A648802140780843A549487003208870F8
:103580000146A348FFF7C8FCA149A081C870010A01
:103590009F48A04B017101469C4805227F38FEF7E9
:1035A00060FCFDF79BF8607901286AD19748007AA2
:1035B000002801D00B281DD9944880214078084369
:1035C000934948700320887001469148FFF7A4FC96
:1035D0008F49A081C870010A8D488E4B0171014648
:1035E0008A4805227F38FEF73CFCFDF777F86079C2
:1035F000012846D18548407A02281DD98348802178
:10360000407808438249487003208870014680480A
:10361000FFF782FC7E49A081C870010A7C487D4B7F
:1036200001710146794805227F38FEF71AFCFDF743
:1036300055F86079012824D17448817A012928D06D
:10364000022926D040788021084371494870032020
:10365000887001466E48FFF75FFCA0816C4900E06E
:103660000FE0C870010A6A486A4B01710146674859
:1036700005227F38FEF7F5FBFDF730F86079012869
:1036800007D0A078322800D2B8E5A570FEF7E2FE98
:10369000B4E55E485E4CC179A41D2180017A0B001F
:1036A000FFF7F3FA0C0D070A15181B1E2124272A11
:1036B0002C0D4B21C90001E04B2109016180417AA9
:1036C00000291ED001291ED0022920D11DE04B2146
:1036D0004901F3E74B218901F0E74B21C901EDE7EF
:1036E000E1218901EAE74B210902E7E7E121C9016C
:1036F000E4E74B214902E1E74749DFE7E12109021D
:10370000DCE7A58003E0A68001E00221A1803F481C
:10371000807A012802D0022804D101E0E68001E08D
:103720000220E0803A4F3D4803951C3F02960095E9
:1037300001903E70FDF728F9387003A96846FDF73F
:10374000BFF83870FDF7F8F8387034480068002882
:1037500018D02E48802140782D4E084370700420E8
:10376000B07003213046FFF7D7FBB881F070000A34
:1037700030712648274B052231467F38FEF771FB12
:10378000FCF7ACFFFDF700F93870228823490220CE
:10379000FDF7DCF838702149628810310220FDF70E
:1037A000D5F838701D49A28820310220FDF7CEF8E7
:1037B00038701A49E28830310220FDF7C7F83870B6
:1037C000FDF7BAF8114C387010200F3C6070A570EE
:1037D0000520E07025710220607106212046FFF768
:1037E0009BFBB881010AA071E17121460846094B93
:1037F00008227038FEF735FBBFF34F8F09490848A0
:10380000C860BFF34F8F00BFFDE700006B010020D1
:103810001C000020FFFF0000C0DA0000A03F0008ED
:103820000400FA0500ED00E010B5044602468821C8
:1038300000F0B2F8002856D0A21C8A21204600F0E1
:10384000ABF800284FD0221D8C21204600F0A4F8B0
:10385000002848D0A21D8E21204600F09DF80028A7
:1038600041D0224608329021204600F095F80028E9
:1038700039D022460A329221204600F08DF80028E5
:1038800031D022460C329421204600F085F80028E1
:1038900029D022460E329621204600F07DF80028DD
:1038A00021D0224610329821204600F075F80028D9
:1038B00019D0224612329A21204600F06DF80028D5
:1038C00011D0224614329C21204600F065F80028D1
:1038D00009D0224616329E21204600F05DF80028CD
:1038E00001D0012010BD002010BD00003EB50C46E7
:1038F000818C074D0193009249040295090C806A5E
:1039000001232246FDF7C2F9002800D001203EBD68
:10391000881300001CB50246044601231832A12179
:10392000FFF7E4FF002827D122461A32E121204682
:1039300000F032F800281FD0224601231C32E32178
:103940002046FFF7D3FF002816D16A46E42120461F
:1039500000F022F800280FD001AAE521204600F04F
:103960001BF8002808D0224601232232E7212046F6
:10397000FFF7BCFF002801D000201CBD684600886E
:1039800001060005090D000F0143E18368468088A8
:103990000009208401201CBD7FB51446828C0223BF
:1039A0005204150C03AA0092094E019302960A468E
:1039B000806A01232946FDF769F9002802D000201A
:1039C00004B070BD6846808920800120F8E70000BF
:1039D0008813000037B5828C84B05204140C06AAF8
:1039E0000092074D0123029501930A46806A214601
:1039F000FDF7FAF9002800D0012007B030BD000023
:103A00001027000000000000C1C0000081C10000BC
:103A10004001000001C30000C0030000800200005C
:103A200041C2000001C60000C0060000800700007F
:103A300041C7000000050000C1C5000081C40000AE
:103A40004004000001CC0000C00C0000800D00000C
:103A500041CD0000000F0000C1CF000081CE00006A
:103A6000400E0000000A0000C1CA000081CB000027
:103A7000400B000001C90000C009000080080000E0
:103A800041C8000001D80000C018000080190000E3
:103A900041D90000001B0000C1DB000081DA0000FA
:103AA000401A0000001E0000C1DE000081DF00009F
:103AB000401F000001DD0000C01D0000801C000050
:103AC00041DC000000140000C1D4000081D50000DA
:103AD0004015000001D70000C0170000801600004C
:103AE00041D6000001D20000C01200008013000087
:103AF00041D3000000110000C1D1000081D00000BE
:103B00004010000001F00000C030000080310000D3
:103B100041F1000000330000C1F3000081F2000019
:103B20004032000000360000C1F6000081F70000BE
:103B30004037000001F50000C0350000803400006F
:103B400041F40000003C0000C1FC000081FD0000C9
:103B5000403D000001FF0000C03F0000803E00002B
:103B600041FE000001FA0000C03A0000803B000066
:103B700041FB000000390000C1F9000081F800009D
:103B80004038000000280000C1E8000081E9000082
:103B90004029000001EB0000C02B0000802A00003B
:103BA00041EA000001EE0000C02E0000802F00005E
:103BB00041EF0000002D0000C1ED000081EC00008D
:103BC000402C000001E40000C0240000802500001B
:103BD00041E5000000270000C1E7000081E6000089
:103BE0004026000000220000C1E2000081E3000046
:103BF0004023000001E10000C021000080200000FF
:103C000041E0000001A00000C060000080610000F1
:103C100041A1000000630000C1A3000081A20000D8
:103C20004062000000660000C1A6000081A70000FD
:103C30004067000001A50000C0650000806400002E
:103C400041A40000006C0000C1AC000081AD000088
:103C5000406D000001AF0000C06F0000806E0000EA
:103C600041AE000001AA0000C06A0000806B0000A5
:103C700041AB000000690000C1A9000081A800005C
:103C80004068000000780000C1B8000081B9000061
:103C90004079000001BB0000C07B0000807A00007A
:103CA00041BA000001BE0000C07E0000807F00001D
:103CB00041BF0000007D0000C1BD000081BC0000CC
:103CC000407C000001B40000C0740000807500005A
:103CD00041B5000000770000C1B7000081B60000C8
:103CE0004076000000720000C1B2000081B3000005
:103CF0004073000001B10000C0710000807000003E
:103D000041B0000000500000C1900000819100000F
:103D10004051000001930000C05300008052000099
:103D20004192000001960000C0560000805700003C
:103D30004197000000550000C195000081940000EB
:103D400040540000019C0000C05C0000805D000049
:103D5000419D0000005F0000C19F0000819E0000A7
:103D6000405E0000005A0000C19A0000819B0000E4
:103D7000405B000001990000C0590000805800001D
:103D80004198000001880000C04800008049000000
:103D900041890000004B0000C18B0000818A0000B7
:103DA000404A0000004E0000C18E0000818F0000DC
:103DB000404F0000018D0000C04D0000804C00000D
:103DC000418C000000440000C18400008185000097
:103DD0004045000001870000C04700008046000009
:103DE0004186000001820000C042000080430000C4
:103DF0004183000000410000C1810000818000007B
:103E00004040000000000000000000000102030428
:103E100006070809030406080C10182030000000EB
:103E20000001020304000000483E000800000020DA
:103E300034000000A42C00087C3E00083400002060
:103E400064050000B42C0008010000000000000020
:103E50000000000000000000000000000000000062
:103E60000000000000000000000000000000000052
:0C3E7000000000000000000080841E0024
:04000005080000C12E
:00000001FF
